:020000040800F2
:1000000000000220FD45000861420008634200082C
:1000100065420008674200086942000800000000CD
:100020000000000000000000000000006B4200081B
:100030006D420008000000006F4200087142000895
:100040004D4600084D4600084D4600084D46000844
:100050004D4600084D4600084D4600084D46000834
:100060004D4600084D4600084D4600084D46000824
:100070004D4600084D4600084D4600084D46000814
:100080004D4600084D4600084D4600084D46000804
:100090004D4600084D4600084D4600084D460008F4
:1000A0004D4600084D4600084D4600084D460008E4
:1000B0004D4600084D4600084D4600084D460008D4
:1000C0004D4600084D4600084D4600084D460008C4
:1000D0004D4600084D4600084D4600084D460008B4
:1000E0004D4600084D4600084D4600084D460008A4
:1000F0004D4600084D4600084D4600084D46000894
:100100004D4600084D4600084D4600084D46000883
:100110004D4600084D4600084D4600084D46000873
:100120004D4600084D4600084D4600084D46000863
:100130004D4600084D4600084D4600084D46000853
:100140004D4600084D4600084D460008794200081B
:100150004D4600084D4600084D4600084D46000833
:100160004D4600084D4600084D4600084D46000823
:100170004D4600084D4600084D46000800000000AE
:080180004D4600084D46000841
:1001880010B5054C237833B9044B13B10448AFF3C9
:1001980000800123237010BD9000002000000000A3
:1001A8004848000808B5034B1BB103490348AFF39F
:1001B800008008BD000000009400002048480008A6
:1001C80053B94AB9002908BF00281CBF4FF0FF31B6
:1001D8004FF0FF3000F072B9ADF1080C6DE904CEB4
:1001E80000F006F8DDF804E0DDE9022304B070470A
:1001F8002DE9F047089E04468846002B4BD18A42D9
:10020800154667D9B2FA82F24AB1C2F1200701FA5B
:1002180002F320FA07F7954047EA030894404FEAAB
:10022800154E230CB8FBFEF71FFA85FC0EFB17884A
:1002380043EA084307FB0CF1994209D9EB1807F187
:10024800FF3080F01B81994240F21881023F2B4415
:100258005B1AA4B2B3FBFEF00EFB103344EA03446E
:1002680000FB0CFCA44509D92C1900F1FF3380F0E0
:100278000781A44540F2048102382C4440EA074033
:10028800A4EB0C0400271EB1D4400023C6E90043A8
:100298003946BDE8F0878B4209D9002E00F0EB8083
:1002A8000027C6E9000138463946BDE8F087B3FAA9
:1002B80083F7002F47D18B4202D3824200F2FA80A3
:1002C800841A61EB030301209846002EE0D0C6E9AA
:1002D8000048DDE702B9FFDEB2FA82F2002A40F0F8
:1002E8008F80491B4FEA154E1FFA85F80127B1FB8D
:1002F800FEFC230C0EFB1C1143EA014308FB0CF126
:10030800994207D9EB180CF1FF3002D2994200F25A
:10031800CD808446591AA3B2B1FBFEF00EFB10142F
:1003280043EA044408FB00F8A04507D92C1900F15A
:10033800FF3302D2A04500F2B6801846A4EB0804A9
:1003480040EA0C409FE7C7F1200CBB4022FA0CFEA4
:100358004EEA030E01FA07F420FA0CF521FA0CF321
:100368004FEA1E482543B3FBF8F92C0C08FB193358
:100378001FFA8EFA44EA034309FB0AF49C4202FA84
:1003880007F200FA07F10BD91EEB030309F1FF305E
:1003980080F087809C4240F28480A9F1020973446E
:1003A8001B1BADB2B3FBF8F008FB103345EA03445E
:1003B80000FB0AFAA24508D91EEB040400F1FF333A
:1003C8006BD2A24569D90238744440EA0940A0FBBF
:1003D8000289A4EB0A044C45C2464B4654D351D07B
:1003E800002E69D0B1EB0A0564EB030404FA0CFC97
:1003F800FD40FC404CEA0505C6E90054002747E7E4
:10040800C2F1200320FA03F7954001FA02F021FA1D
:1004180003F34FEA154E3843010CB3FBFEF71FFAFE
:1004280085F80EFB173341EA034107FB08F38B42BB
:1004380004FA02F407D9691807F1FF3C2FD28B425E
:100448002DD9023F2944CB1A81B2B3FBFEF00EFB33
:10045800103341EA034100FB08F38B4207D96918BE
:1004680000F1FF3C17D28B4215D902382944C91A2A
:1004780040EA07473BE73746304609E70746E7E6DD
:100488001846FBE64145ABD2B8EB020A69EB0E020F
:1004980001381346A4E76046E9E7184695E767463A
:1004A800D1E781467CE702382C4447E7ACF1020CDF
:1004B8002B442FE7384608E73746E9E6704700BF80
:1004C80010B504460E4B18784FF47A73B3FBF0F36B
:1004D8000C4A1068B0FBF3F000F0AAF868B90F2CCA
:1004E80001D901200AE0002221464FF0FF3000F038
:1004F8005DF8034B5C60002000E0012010BD00BFE8
:10050800000000202800002008B50B4B1A6842F4B0
:1005180000721A601A6842F480621A601A6842F41B
:1005280080721A60032000F02FF80020FFF7C8FF40
:1005380003F0B6FD002008BD003C0240034A1168E4
:10054800034B1B780B441360704700BFC4000020A6
:1005580000000020014B1868704700BFC40000204D
:1005680038B50446FFF7F6FF0546B4F1FF3F02D061
:10057800044B1B781C44FFF7EDFF401BA042FAD345
:1005880038BD00BF00000020074AD36823F4E063A9
:100598001B041B0C000200F4E060184340F0BF602D
:1005A80040F40030D060704700ED00E030B4174BE5
:1005B800DB68C3F30223C3F10704042C28BF042417
:1005C8001D1D062D18D9033B4FF0FF3505FA04F41D
:1005D80021EA0401994005FA03F322EA03031943C7
:1005E80000280BDB0901C9B200F1604000F5614049
:1005F80080F8001330BC70470023E5E700F00F00D7
:100608000901C9B2024B1954F4E700BF00ED00E03C
:1006180014ED00E0002807DB00F01F024009012369
:100628009340024A42F82030704700BF00E100E0E2
:100638000138B0F1807F0AD2064B5860064AF02193
:1006480082F823100020986007221A607047012062
:10065800704700BF10E000E000ED00E000230F2B22
:1006680000F2D780F0B482B039E0072200E000221F
:10067800B2403A430234674E46F82420664A14686A
:10068800EA4302EA04064F6817F4803F01D045EABE
:100698000406614C2660646802EA04064F6817F491
:1006A800003F01D045EA04065B4C6660A46802EA94
:1006B80004064F6817F4801F01D045EA0406564C1B
:1006C800A660E46822404E6816F4001F01D045EA8F
:1006D8000402514CE26001330F2B00F29780012293
:1006E8009A400C6804EA0205AA42F4D14C68022C2C
:1006F80001D0122C10D1DE08083650F826C003F0BD
:100708000704A7000F24BC402CEA040C0C69BC4069
:1007180044EA0C0440F8264004685F000326BE4003
:10072800F64306EA040C4C6804F00304BC4044EAAF
:100738000C0404604C6804F1FF3CBCF1010F03D9C0
:10074800112C01D0122C10D1846806EA040CCC6854
:10075800BC4044EA0C048460446824EA02024C6801
:10076800C4F300149C4014434460C26816408A686D
:10077800BA403243C2604A6812F0805FABD00022B0
:100788000192264A546C44F480445464526C02F436
:1007980080420192019A9C08A61C1E4A52F82670B3
:1007A80003F0030296000F22B24027EA02071C4A10
:1007B80090423FF45CAF02F5806290421AD002F595
:1007C8008062904218D002F58062904216D002F5FD
:1007D8008062904214D002F58062904212D002F5F5
:1007E8008062904210D002F5806290423FF43DAFA3
:1007F80008223DE701223BE7022239E7032237E7D7
:10080800042235E7052233E7062231E702B0F0BCBF
:100818007047704700380140003C014000380240F2
:10082800000002400369194201D1002070470120ED
:10083800704712B909048161704781617047436943
:1008480031EA030301D0816170470904816170476F
:10085800F8B50668346A04F00F07C4F34343C4F3D9
:100868000A14022B2ED16CB307EB8702D300034482
:10087800596C39B305462246304601F099FFBA0053
:100888003A44D3002B445A6C22445A64DA6C22440A
:10089800DA6406EB4713D3F810150B4A0A408AB1FD
:1008A800D3F8002522F0804242F00042C3F8002528
:1008B800BB00D919CA002A4492F8503083F00103CA
:1008C80082F85030F8BD00BF0000F81FF0B585B0C1
:1008D8009DF828509DF82C60BDF8307090F8B8420B
:1008E800012C41D0012480F8B8424FEA810C8C4495
:1008F8004FEACC0404444FF0000C84F83DC084F85F
:100908003830A4F8407084F8391084F83F6002F059
:100918007F0C84F83AC012F0800F1BD101EB810CD8
:100928004FEACC0404444FF0000C84F83BC0044662
:1009380001EB810C4FEACC00204480F83C50029730
:1009480001960095206802F03FF8002384F8B83239
:1009580005B0F0BD01EB810C4FEACC0404444FF024
:10096800010C84F83BC0E2E70220F1E790F8B832C6
:10097800012B0BD010B50446012380F8B83200686B
:1009880002F0ABF8002084F8B80210BD02207047CE
:10099800002845D0F0B58BB00646046890F8B93207
:1009A800002B38D0032386F8B932E36B13F4807F29
:1009B80001D100233361306801F0A1FE344654F8B8
:1009C80010CB6D460FCC0FC50FCC0FC594E80300B4
:1009D80085E80300371D97E80E00604601F044FEE5
:1009E8000121306801F091FE344654F810CB6D4671
:1009F8000FCC0FC50FCC0FC594E8030085E80300A2
:100A080097E80E00604601F051FF012386F8B932DD
:100A180000200BB0F0BD80F8B83203F0B3FCC1E79A
:100A280001207047F8B59DF81870BDF820608D005A
:100A38000D44EC00044484F83B2084F83F306FB93F
:100A480001EB8105EC000444032584F84250032B94
:100A580000F29680DFE803F00A8D2F5E01EB810536
:100A6800EC000444022584F84250F0E7012F40F0DE
:100A78008780002A40F0848036B901EB8102D300D8
:100A88000344012283F8512001EB8102D30003447F
:100A980093F851303BB901EB8102D30003440022A3
:100AA80083F842206CE001EB8102D3000344022268
:100AB80083F8422064E0B2B901EB8102D300034419
:100AC80093F851303BB901EB8102D3000344002273
:100AD80083F8422054E001EB8102D3000344022250
:100AE80083F842204CE001EB8102D300034493F8E1
:100AF80050303BB901EB8102D3000344002283F854
:100B080042203DE001EB8102D3000344022283F836
:100B1800422035E0B2B901EB8102D300034493F8D7
:100B280051303BB901EB8102D3000344002283F822
:100B3800422025E001EB8102D3000344022283F81E
:100B480042201DE001EB8102D300034493F85030AA
:100B58003BB901EB8102D3000344002283F8422011
:100B68000EE001EB8102D3000344022283F8422005
:100B780006E001EB8102D3000344002283F84220FF
:100B88008A005418E3000344079C5C649E640024B4
:100B980083F85C40DC6483F8391083F85D401144C5
:100BA800CB0003F13801027C0144006802F010F820
:100BB800F8BD30B583B005460468D4F840340193D5
:100BC800D4F840340093009B23F02E030093019B3C
:100BD80013F0020F07D0019B13F0010F28D1009BDF
:100BE80043F002030093019B13F0080F13D0009BFE
:100BF80043F008030093019B13F0040F34D0AB6952
:100C0800022B1CD0EB68012B29D0284603F019FCD5
:100C1800284603F009FC019B13F0200F03D0009B2A
:100C280043F020030093009BC4F8403403B030BD68
:100C3800A36923F00053A36103F0F6FBCFE7019B00
:100C480003F4C023B3F5802F04D00121286801F0F4
:100C5800CBFDDAE70221286801F0C6FDD5E74EF69C
:100C68006022C4F80424D0E7284603F0F0FBD4F847
:100C7800403423F02E03C4F840342A68936943F0C3
:100C880000539361C7E7F8B506460D46076807EBBA
:100C9800411707F5A064A36813F0040F3ED004239E
:100CA800A360E36843F00203E360A36813F4007FE2
:100CB8006AD1A36813F0010F00F0878033694BB144
:100CC800AA002A44D30033449A6C2169C1F3120163
:100CD800521ADA64AA002A44D3003344012283F862
:100CE8005D2000219965A26093F83F30002B57D012
:100CF800022B55D0032B5DD1D7F8003543F00053B4
:100D0800C7F8003505EB8502D3003344012283F888
:100D18005C202946304603F093FB4BE0A36813F0B0
:100D2800200F02D02023A360BFE7A36813F0080FA9
:100D380017D1A36813F4806FB7D0E36843F00203B8
:100D4800E360006801F0C9FE1023A36005EB85028B
:100D5800D3003344082283F85D204FF48063A360F6
:100D6800A3E7E36843F00203E36001EB8102D300E9
:100D78000344052283F85D201023A3600823A360A1
:100D8800006801F0AAFE90E7E36843F00203E3601D
:100D98002946306801F0A1FE4FF40073A36013E008
:100DA800E36843F00203E3602946306801F095FEEA
:100DB8001023A360AB005919CA00324492F850308E
:100DC80083F0010382F85030F8BDA36813F0020FD6
:100DD80062D0E36823F00203E36005EB8502D300E9
:100DE800334493F85D30012B17D0052B29D0062BFF
:100DF8002FD0082B2DD0032B16D105EB8502D3005D
:100E08003344022283F85C20D7F8003523F080436E
:100E180043F00043C7F8003506E005EB8502D30030
:100E28003344012283F85C200223A36005EB85028A
:100E3800D300334493F85C202946304603F000FB86
:100E4800C2E705EB8502D3003344052283F85C2012
:100E5800EAE7AA002A44D30033449A6D01329A651E
:100E6800032A11D9AA002A44D300334400229A65E0
:100E7800042283F85C20D7F8003523F0804343F040
:100E88000043C7F80035CFE705EB8502D3003344AC
:100E9800022283F85C20EEE7A36813F0800F19D1D3
:100EA800A36813F0100F8FD005EB8502D3003344ED
:100EB80093F83F30032B25D00BB1022B07D105EB5C
:100EC8008502D300334400229A6533694BB310235B
:100ED800A36079E7E36843F00203E360AB005919C4
:100EE800CA003244916D013191652B44DA003244D5
:100EF800062382F85D302946306801F0EEFD802334
:100F0800A36061E705EB8502D300334400229A65AC
:100F1800E36843F00203E3602946306801F0DDFD31
:100F2800D5E705EB8502D3003344032283F85D201F
:100F3800E36843F00203E3602946306801F0CDFD21
:100F4800C5E7F8B5036803EB411303F5A064A2688D
:100F580012F0040F24D10E460546A26812F0200FA5
:100F680025D02023A36001EB8102D3001A46034455
:100F780093F83D30012B19D18B000244002182F8EF
:100F88003D103344DA000244022382F85C30E368FF
:100F980043F00203E3603146006801F09EFD05E07E
:100FA8000423A360E36843F00203E360F8BDA2688A
:100FB80012F0400F34D1A26812F4007F4AD1A2681F
:100FC80012F0010F51D1A26812F0080F62D1A26885
:100FD80012F0100F6FD08A000A44D3000344002295
:100FE8009A65032283F85D2093F83D306BB901EBD5
:100FF8008102D300034493F83C3033B901EB8102FA
:10100800D3000344012283F83D20E36843F0020340
:10101800E3603146286801F060FD1023A360C5E74E
:101028008B005918CA000244042182F85D1001217E
:1010380082F83D103344DA00024400239365E368E4
:1010480043F00203E3603146006801F046FD4023A7
:10105800A360ABE7E36843F00203E360006801F0D4
:101068003CFD4FF40073A360A0E78F007A18D3000B
:10107800034400229A65E36843F00203E3600068D2
:1010880001F02BFD0123A360B919C800284480F89A
:101098005D308BE70823A360E36843F00203E36055
:1010A800006801F01AFD06EB8601C80028440523F4
:1010B80080F85D307AE7A26812F0800F39D1A26813
:1010C80012F4806F46D1A26812F0020F3FF46EAF9F
:1010D800E26822F00202E26001EB8101CA001146D7
:1010E800024492F85D20012A48D0032A5AD0042AE3
:1010F8006CD0052A72D0062A01D0082A59D1B1002D
:101108003144CA002A44916D0131916503296BD994
:10111800282202FB065200219165042182F85C1006
:10112800D3F8002522F0804242F00042C3F800259F
:101138003FE0E36843F00203E360006801F0CDFCA0
:1011480006EB8601CB002B44062283F85D20802322
:10115800A3602BE7E36843F00203E360006801F053
:10116800BCFC1023A3604FF48063A36006EB8601E8
:10117800CB002B44082283F85D2017E70B46034475
:10118800012283F85C2093F83F30023BDBB29342A4
:101198000FD80B46034493F8512082F0010283F8DC
:1011A800512006E006EB8602D3000344022283F8AE
:1011B8005C200223A36006EB8602D3002B4493F83D
:1011C8005C203146284603F03BF9EFE606EB860241
:1011D800D3000344022283F85C20EAE7282303FBB8
:1011E800060383F85C20E4E7282202FB065202216A
:1011F80082F85C1094E7F8B504460568284601F0C3
:10120800EFFA012800D0F8BD206801F0E5FA0028BF
:10121800F9D0206801F0E0FA10F4001F03D0236829
:101228004FF400125A61206801F0D6FA10F4801FBA
:1012380003D023684FF480125A61206801F0CCFA79
:1012480010F0806F03D023684FF080625A612068E5
:1012580001F0C2FA10F0020F02D0236802225A618C
:10126800206801F0B9FA10F0005F25D1206801F07C
:10127800B3FA10F0807F31D1206801F0ADFA10F098
:10128800080F2FD1206801F0A7FA10F0007F30D1A5
:10129800206801F0A1FA10F0100FB4D02268936909
:1012A80023F0100393612046FFF7D2FA226893696E
:1012B80043F010039361A6E7D5F8403423F02E03DA
:1012C800C5F84034204603F0B5F80121206801F044
:1012D8008BFA23684FF000525A61C7E72046FFF7A0
:1012E80068FCC9E7204603F099F8236808225A6188
:1012F800C8E7206801F0ECFB0746002604E0F1B2DD
:101308002046FFF71EFE0136A368B34212D906F045
:101318000F0327FA03F313F0010FF4D005EB46137C
:10132800D3F8003513F4004FE9D0F1B22046FFF7A7
:10133800AAFCE8E723684FF000725A61A8E738B5BD
:1013480090F8B832012B0ED00446012580F8B85227
:10135800006801F0CEF92946206801F084FA0020DF
:1013680084F8B80238BD0220FCE790F8B832012BA7
:101378000BD010B50446012380F8B832006801F09C
:10138800D3FC002084F8B80210BD0220704708B5CD
:10139800006801F049FA08BD01EB8101CB0018444F
:1013A80090F85C00704701EB8101CB001844C06CD9
:1013B800704708B5006801F002FB08BD08B5006871
:1013C80001F0F2FA08BD0000002800F0BE80F8B570
:1013D800044690F83D30002B6BD0242384F83D3030
:1013E8002268136823F00103136000F09FFE62680F
:1013F800584B9A4262D8584B98428CBF002301231D
:10140800002B40F0A480554BA3FB00239B0C2168C4
:101418004A6822F03F021A434A6025682A6A22F085
:101428003F0266684B498E424ED8013313432B6204
:101438002568E96921F44F4121F0FF016368454AB5
:1014480093424BD801385B00B0FBF3F30133C3F38D
:101458000B03042B38BF04230B43EB6121680B6893
:1014680023F0C003E269206A024313430B6021683A
:101478008B6823F4034323F0FF032269E0680243E7
:1014880013438B602168CB6823F0FF036269A0696E
:1014980002431343CB602268136843F001031360CF
:1014A80000202064202384F83D30206384F83E0027
:1014B800F8BD80F83C3002F013FE8EE7284B9842C6
:1014C8008CBF002301239BE74FF4967101FB03F3C4
:1014D8002449A1FB03139B090133A7E7A268BAB902
:1014E800461E03EB4307B6FBF7F60136C6F30B06B9
:1014F800B6FA86F6760936BBC2B9013803EB430360
:10150800B0FBF3F30133C3F30B0242F40043A3E748
:10151800461E03EB830707EB8707B6FBF7F6013692
:10152800C6F30B06B6FA86F67609E4E7013803EB4C
:10153800830303EB8303B0FBF3F20132C2F30B0224
:1015480042F4404388E7012386E7012070470120E1
:10155800AEE700BFA08601007F841E0083DE1B4328
:10156800FF083D00D34D6210002800F0BF8070B521
:10157800044690F84130002B51D0022284F84120D3
:101588002168CB6923F47B6323F00F03CB612368C5
:101598001A626369934263D0E368002B46D1102531
:1015A800A368202B00D86D00012000F079FE236984
:1015B800B3F5007F3CD0B0FBF5F000EB80004300B2
:1015C8006269B3FBF2F30533494AA2FB0323DB0844
:1015D80003F001029B1A5B081202991EFD2941D8EB
:1015E80021690A43216813430B622168CB6923F4FC
:1015F8007B6323F00F036268A0680243E06802433C
:10160800A0690243134343F40063CB61236A012BAF
:101618002ED000206064012384F8413070BD80F82A
:101628004030344B436302F093FDA6E72025B7E72B
:10163800E36853B1AD00B0FBF5F000EB8000430068
:101648006269B3FBF2F30533BEE7ED00B0FBF5F0DA
:1016580000EB800043006269B3FBF2F30533B3E7A4
:101668000022BAE7636C43F0100363640120D5E7F6
:10167800214B63632268214B9A421FD04FF04022CE
:10168800D36923F47B6323F00F03D36122681B4BD8
:101698009A4215D04FF0402302221A622268174B53
:1016A8009A4210D04FF04021CA6992B26368B3F5EC
:1016B800007F0AD0C3B94FF4807608E0104ADFE70C
:1016C800A3F58063E8E70E49EEE74FF48076A0685B
:1016D800E568238B2B439BB203439BB233431343ED
:1016E80043F40063CB6194E70026F0E701207047DC
:1016F800CDCCCCCC7F1700088919000800380040F1
:1017080000340040704708B5426A03681288DA60FE
:10171800436A02334362438D013B9BB24385438D49
:101728009BB203B108BD0268536823F0A00353605D
:10173800012380F84130FFF7E5FFF3E7704708B56C
:101748000368DA68C36A1A80C36A0233C362438EC5
:10175800013B9BB24386438E9BB203B108BD02682E
:10176800536823F060035360012380F84130FFF78A
:10177800E5FFF3E7704710B584B004460268936844
:10178800039390F84130DBB2042B06D094F8413033
:10179800DBB2032B2CD004B010BD039B13F0010F58
:1017A80003D0536813F0400F1FD1039B13F0400F71
:1017B800ECD023685A6812F0200FE7D05A6822F05C
:1017C80060025A60002301932368DA6801929B68DB
:1017D8000193019B012384F84130636C43F00203B9
:1017E80063642046FFF7C6FFD0E7FFF7A8FFDCE7F2
:1017F800039B13F0020F04D023685B6813F0800F7B
:101808001DD1039B13F0080FC5D023685A6812F046
:10181800200FC0D05A6822F0A0025A600023029319
:1018280023689B680293029B012384F84130636C10
:1018380043F0040363642046FFF79CFFABE72046B0
:10184800FFF761FFDDE7704708B5436A9A1C4262FB
:1018580002681B88D360438D013B9BB24385438D4F
:101868009BB23BB90268536823F0A0035360438ED0
:101878009BB203B108BD012380F84130FFF7E3FFB5
:10188800F8E7000008B50268144B9A421BD04FF0E5
:101898004023DA68C36A991CC1621A80438E013BEF
:1018A8009BB24386438E9BB263B902680B4B9A4244
:1018B8000CD04FF04022536823F060035360438DEF
:1018C8009BB22BB108BDA3F58063E2E7044AF2E7B7
:1018D800012380F84130FFF7B6FFF3E700380040F6
:1018E8000034004008B5436A9A1C42621A880168AD
:1018F800124B994217D04FF04023DA60438D013BD9
:101908009BB24385438D9BB263B902680B4B9A42E5
:101918000CD04FF04022536823F0A0035360438E4D
:101928009BB22BB108BDA3F58063E6E7044AF2E752
:10193800012380F84130FFF786FFF3E700380040C5
:101948000034004008B50368DA68C36A991CC162AC
:101958001A80438E013B9BB24386438E9BB23BB9B0
:101968000268536823F060035360438D9BB203B150
:1019780008BD012380F84130FFF765FFF8E7000054
:1019880010B586B0044603689A680592704A934277
:101998006FD04FF04022916804915B6803935368BD
:1019A80002936368B3F5007F01D0002B70D1059BCB
:1019B80013F0020F03D0039B13F0800F5CD1049B3C
:1019C80013F0010F03D0029B13F0400F58D1049B72
:1019D80013F0400F24D0029B13F0200F20D0226870
:1019E8005B4B9A4250D04FF04022536823F060037B
:1019F80053602268536823F0A003536000230093C8
:101A08002368DA6800929B680093009B012384F89E
:101A18004130636C43F0020363642046FFF7AAFE7B
:101A2800059B13F0080F22D0039B13F0200F1ED044
:101A38002268536823F0A00353602268444B9A42FB
:101A480024D04FF04022536823F0600353600023F2
:101A5800019323689B680193019B012384F841301B
:101A6800636C43F0040363642046FFF783FE06B00B
:101A780010BDA2F580628EE72046FFF7E5FE9EE7DF
:101A88002046FFF7FFFEA2E7324AAEE7314ADAE71F
:101A9800049B13F0020F03D0029B13F0800F4AD16E
:101AA800059B13F0010F03D0039B13F0400F46D1A1
:101AB800059B13F0400F1CD0039B13F0200F18D088
:101AC8002268536823F0600353602268204B9A42CF
:101AD80039D04FF04022536823F0A003536001230C
:101AE80084F84130636C43F0020363642046FFF7D7
:101AF80041FE049B13F0080FB9D0029B13F0200F8E
:101B0800B5D02268124B9A421FD04FF0402253683A
:101B180023F0A00353602268536823F060035360E6
:101B2800012384F84130636C43F004036364204666
:101B3800FFF720FE9BE72046FFF7D4FEB0E72046DC
:101B4800FFF700FFB4E7034AC5E7024ADFE700BF33
:101B58000038004000340040002800F0BB8170B518
:101B680082B00446036813F0010F3BD0A74B9B6873
:101B780003F00C03042B2CD0A44B9B6803F00C033C
:101B8800082B21D06368B3F5803F4FD0B3F5A02F61
:101B980052D09E4B1A6822F480321A601A6822F4D6
:101BA80080221A606368002B50D0FEF7D3FC0546EC
:101BB800964B1B6813F4003F14D1FEF7CBFC401B77
:101BC8006428F5D903208AE1904B5B6813F4800FF1
:101BD800D8D08E4B1B6813F4003F03D06368002BEA
:101BE80000F07A81236813F0020F55D0874B9B6869
:101BF80013F00C0F3ED0854B9B6803F00C03082BA9
:101C080033D0E368002B68D0814B01221A60FEF7BD
:101C1800A1FC05467D4B1B6813F0020F54D1FEF75B
:101C280099FC401B0228F5D9032058E1774A13682C
:101C380043F480331360B5E7744B1A6842F480228A
:101C48001A601A6842F480321A60ABE7FEF782FC29
:101C580005466E4B1B6813F4003FC3D0FEF77AFCB1
:101C6800401B6428F5D9032039E1684B5B6813F4FD
:101C7800800FC6D1654B1B6813F0020F04D0E368D0
:101C8800012B01D001202AE1604A136823F0F803F0
:101C9800216943EAC1031360236813F0080F40D099
:101CA800636963B35B4B01221A60FEF753FC054678
:101CB800564B5B6F13F0020F33D1FEF74BFC401B02
:101CC8000228F5D903200AE1504A136823F0F803E3
:101CD800216943EAC1031360DEE74D4B00221A6015
:101CE800FEF738FC0546494B1B6813F0020FD3D0AA
:101CF800FEF730FC401B0228F5D90320EFE0454BE6
:101D080000221A60FEF726FC0546404B5B6F13F075
:101D1800020F06D0FEF71EFC401B0228F5D903204F
:101D2800DDE0236813F0040F79D0384B1B6C13F0F7
:101D3800805F33D100230193344B1A6C42F08052F8
:101D48001A641B6C03F080530193019B0125324BED
:101D58001B6813F4807F23D0A368012B34D0052B94
:101D680038D02A4B1A6F22F001021A671A6F22F034
:101D780004021A67A368002B36D0FEF7EBFB064671
:101D8800224B1B6F13F0020F48D1FEF7E3FB801BB9
:101D980041F288339842F3D90320A0E00025D6E722
:101DA8001D4A136843F480731360FEF7D3FB06469D
:101DB800194B1B6813F4807FCED1FEF7CBFB801B39
:101DC8000228F5D903208AE0104A136F43F0010373
:101DD8001367CFE70D4B1A6F42F004021A671A6FA8
:101DE80042F001021A67C5E7FEF7B4FB0646074B47
:101DF8001B6F13F0020F11D0FEF7ACFB801B41F2F2
:101E080088339842F3D9032069E000BF00380240C4
:101E180000004742800E474200700040E5B9A369C0
:101E2800002B5BD0304A926802F00C02082A58D086
:101E3800022B17D02D4B00221A60FEF78BFB0446AD
:101E4800294B1B6813F0007F42D0FEF783FB001B71
:101E58000228F5D9032042E0234A136C23F080536B
:101E68001364DCE7214B00221A60FEF773FB05467A
:101E78001D4B1B6813F0007F06D0FEF76BFB401B61
:101E88000228F5D903202AE0E369226A1343626A2B
:101E980043EA8213A26A5208013A43EA0243E26A19
:101EA80043EA0263104A5360104B01221A60FEF79E
:101EB80051FB04460C4B1B6813F0007F06D1FEF75C
:101EC80049FB001B0228F5D9032008E0002006E0A2
:101ED800002004E001207047012000E0002002B04B
:101EE80070BD0120FBE700BF003802406000474298
:101EF800324B9B6803F00C03042B5CD0082B01D0F9
:101F08002F4870472DE9F04B2C4B5A6802F03F02DE
:101F18005B6813F4800F2BD0284B5B68C3F38813DE
:101F28001E4600275C010025E41A65EB0705A90198
:101F380041EA9461A001001B61EB0501CB0043EA73
:101F48005073C400A01943EB07014B0243EAD05376
:101F58004402204619460023FEF732F9174B5B6806
:101F6800C3F3014301335B00B0FBF3F0BDE8F08B32
:101F7800124B5B68C3F388131E4600275C010025DB
:101F8800E41A65EB0705A90141EA9461A001001B69
:101F980061EB0501CB0043EA5073C400A01943EB81
:101FA80007018B0243EA9053840220461946002316
:101FB800FEF706F9D2E70348704700BF0038024031
:101FC8000024F40000127A00002800F09D8070B50B
:101FD80004464F4B1B6803F00F038B4209D2CBB268
:101FE8004B4A1370136803F00F038B4201D0012092
:101FF80070BD236813F0020F17D013F0040F04D03C
:10200800444A936843F4E0539360236813F0080F3D
:1020180004D0404A936843F4604393603D4A936810
:1020280023F0F003A068034393600D46236813F080
:10203800010F32D06368012B21D09A1E012A25D9BD
:10204800344A126812F0020F60D032498A6822F0CE
:10205800030213438B60FEF77DFA06462D4B9B68FF
:1020680003F00C036268B3EB820F16D0FEF772FA26
:10207800801B41F288339842F0D90320B8E7254AFB
:10208800126812F4003FE0D10120B1E7214A12683A
:1020980012F0007FD9D10120AAE71D4B1B6803F07D
:1020A8000F03AB4209D9EAB2194B1A701B6803F047
:1020B8000F03AB4201D001209AE7236813F0040F05
:1020C80006D0144A936823F4E053E1680B43936005
:1020D800236813F0080F07D00E4A936823F460436F
:1020E800216943EAC1039360FFF702FF094B9B682C
:1020F800C3F30313084AD35CD840084B1860002088
:10210800FEF7DEF9002073E70120704701206FE732
:10211800003C0240003802406048000828000020C7
:10212800014B1868704700BF2800002008B5FFF76A
:10213800F7FF044B9B68C3F38223034AD35CD84060
:1021480008BD00BF003802407048000830B583B0B1
:102158000446036813F0050F06D1236813F0020F35
:102168002ED1002003B030BD494B00221A60FEF783
:10217800F1F90546474B1B6813F0006F06D0FEF7D0
:10218800E9F9401B0228F5D90320EBE76268A36848
:102198001B0743EA82133F4AC2F884303C4B0122B2
:1021A8001A60FEF7D7F905463A4B1B6813F0006F23
:1021B800D3D1FEF7CFF9401B0228F5D90320D1E788
:1021C80000230193334B1A6C42F080521A641B6C43
:1021D80003F080530193019B2F4A136843F48073E3
:1021E8001360FEF7B7F905462B4B1B6813F4807F85
:1021F80006D1FEF7AFF9401B0228F5D90320B1E755
:10220800244B1B6F13F4407312D0E26802F440723F
:102218009A420DD01F4B1A6F22F440721F490120B9
:102228000860002008601A671B6F13F0010F13D1B4
:10223800E36803F44072B2F5407F1ED0154A9368F4
:1022480023F4F813936013490B6FE268C2F30B028F
:1022580013430B67002085E7FEF77CF905460D4B15
:102268001B6F13F0020FE3D1FEF774F9401B41F224
:1022780088339842F3D9032074E706498A6822F420
:10228800F81223F0704323F4407313438B60DAE7AA
:10229800680047420038024000700040400E474244
:1022A80001282AD1174B9B6813F4000303D0012B94
:1022B80025D115487047134B5B6813F4800F14D071
:1022C800104B5B6803F03F031048B0FBF3F00D4A76
:1022D800D2F88430C3F3881300FB03F0D2F88430BB
:1022E800C3F30273B0FBF3F07047064B5B6803F06F
:1022F8003F030748B0FBF3F0E9E7002070470020F0
:10230800704700BF003802400080BB0000127A000E
:102318000024F400F8B505460F4616461C462B68FF
:102328009B6837EA03030CBF01230023B34237D06D
:10233800B4F1FF3FF3D0FEF70DF9069BC01AA04297
:1023480001D2002CEBD12A68536823F0E0035360D4
:102358006B68B3F5827F0BD0AB6AB3F5005F14D01E
:10236800012385F85130002385F85030032018E008
:10237800AB68B3F5004F02D0B3F5806FECD12A6893
:10238800136823F040031360E6E72A68136823F410
:10239800005313602A68136843F400531360DFE79F
:1023A8000020F8BD30B585B0164C2468164DA5FB45
:1023B8000434640D4FF47A7505FB04F403944468FF
:1023C800B4F5827F0BD0039BC3B1039B013B0393FE
:1023D80003689B6813F0800FF5D100230FE00B46CC
:1023E8000446009200228021FFF794FF034630B193
:1023F800636D43F020036365032300E00023184660
:1024080005B030BD28000020819F5E1600283BD013
:1024180010B504460023836290F85130002B2ED06B
:10242800022384F851302268136823F040031360B4
:102438006368A2681343E26813432269134362691D
:102448001343A26902F400721343E2691343226A38
:102458001343A16A22680B431360638B03F00403E0
:10246800616A22680B4353602268D36923F40063CE
:10247800D36100206065012384F8513010BD80F8D5
:10248800503001F0B1FECBE7012070472DE9F04153
:1024980082B090F85040012C00F0C5801D461746C8
:1024A80088460446012380F85030FEF753F8064664
:1024B80094F85130DBB2012B09D00220012384F8B3
:1024C8005130002384F8503002B0BDE8F081B8F1F3
:1024D800000F00F09A80002F00F09980032384F801
:1024E800513000236365C4F83080A786E786A3636C
:1024F800A387E38763642364A368B3F5004F1ED002
:1025080023681A6812F0400F03D11A6842F040029B
:102518001A60E368B3F5006F17D06368B3F5827F7C
:1025280001D0012F49D1226B236812781A73236BCB
:1025380001332363E38E013B9BB2E3863DE02268CF
:10254800136843F480431360DAE763680BB1012F23
:1025580015D1226B23681288DA60236B0233236358
:10256800E38E013B9BB2E38609E0FDF7F3FF801B96
:10257800A84202D3B5F1FF3F4BD1002D4BD0E38EDB
:102588009BB2002B2CD023689A6812F0020FECD073
:10259800226B1288DA60236B02332363E38E013BDC
:1025A8009BB2E386EBE7FDF7D5FF801BA84202D379
:1025B800B5F1FF3F31D1002D31D0E38E9BB27BB115
:1025C80023689A6812F0020FEDD0226B12781A7302
:1025D800236B01332363E38E013B9BB2E386ECE775
:1025E800324629462046FFF7DDFE08B12023636501
:1025F800A36833B901932368DA6801929B68019351
:10260800019B636D6BB9002058E7012056E7012054
:1026180054E7032052E7032050E703204EE7032046
:102628004CE701204AE702204EE70000002301336F
:102638000C4A934211D80269002AF8DA036943F078
:102648000103036100230133064A934207D8026954
:1026580012F0010FF7D100207047032070470320C4
:10266800704700BF400D030084B010B5044603A8AE
:1026780080E80E00089B012B1FD1A36B23F4803345
:10268800A363E36823F4840323F04003E360E3686F
:1026980023F44013E3600F9B012B09D02046FFF77A
:1026A800C5FF069B012B1BD0BDE8104004B0704746
:1026B800E36843F48013E360F0E7E36843F0400322
:1026C800E3602046FFF7B2FF0C9B23B9A36B43F4EA
:1026D8008033A363E5E7A36B23F48033A363E0E7C8
:1026E800A36843F00603A360A36843F02003A36034
:1026F800DAE7836843F0010383600020704783684A
:1027080023F0010383600020704708B5C36823F0F5
:10271800C043C360012909D069B9C36843F0804345
:10272800C3603220FDF71CFF002008BDC36843F0DA
:102738000053C360F5E70120F7E70000890141F085
:102748002001016100230133054A934205D802693B
:1027580012F0200FF7D1002070470320704700BF08
:10276800400D03001023036100230133054A9342FF
:1027780005D8026912F0100FF7D100207047032026
:10278800704700BF400D030070B49DF80C4064B959
:1027980003339D0807E000EB023303F5805351F83B
:1027A800046B1E600134AC42F5D3002070BC704746
:1027B80003329208002393420CD210B400F58054DF
:1027C800246841F8044B01339342F7D308465DF877
:1027D800044B70470846704742698069104070474B
:1027E800406900F00100704710B400F58064D0F82B
:1027F800003423F00303C0F80034D0F8003401F0AB
:1028080003021343C0F80034012905D0022907D078
:1028180000205DF8044B70474BF680336360F7E7A0
:1028280041F270736360F3E730B583B00446002566
:102838000195D0F840340193019B23F02E030193B6
:10284800019B43F48073C0F840346420FDF788FE90
:10285800019B23F48073C4F840340A20FDF780FEFE
:10286800284603B030BD82B000230193D0F840342D
:102878000193019B23F02E030193019B13F4805FC6
:1028880001D101290CD0019B13F4805F05D021B937
:10289800019B23F48053C0F84034002002B07047F5
:1028A800019B43F48053C0F84034ECE784B038B55A
:1028B800044605A880E80E0025460023C4F8003E1B
:1028C800A36B43F40013A363A36B23F40023A36354
:1028D800A36B23F48023A363E36B13F4807F10D0EE
:1028E800079B032B06D0D4F8003423F00403C4F864
:1028F80000340CE0D4F8003443F00403C4F8003486
:1029080005E0D4F8003423F00403C4F8003410219F
:102918002046FFF713FF2046FFF724FF002209E0B7
:1029280005EB42134FF0FF31C3F808150021C3F837
:102938000C150132069B9342F2D801212046FFF77D
:1029480092FFC820FDF70CFE0023A3614FF0FF3370
:102958006361E36B13F4807F17D04FF400736362F5
:1029680003F18073A3620D4BC4F80031089B1BB9B7
:10297800A36943F01003A361A269094B1343A36140
:102988000020BDE8384004B070478023636203F537
:10299800C003A362034BC4F80031E7E70003E0007B
:1029A800080020A3E000400082B000230193D0F883
:1029B800403401930198C0F3414002B0704700F5DC
:1029C8008060806880B27047F0B506469DF8184070
:1029D80000EB411505F5A0604FF0FF378760032C29
:1029E80065D8DFE804F00256021840F29D47C76038
:1029F80012F0800F09D1F76B17F4807F59D0C768A0
:102A080047F06007C76000200CE0C76847F480778C
:102A1800C760002006E040F29D67C76012F0800F93
:102A280031D1002006F5806ED6F8187401F00F0138
:102A38004FF0010C0CFA01F13943C6F81814B169CA
:102A480041F00071B16112F0800F34D100269DF879
:102A58001410022932D000219B0503F0FE53D20244
:102A680002F4F0421343A20402F440221343BDF8D7
:102A78001C20C2F30A02134333430B43C5F8003545
:102A8800032C1ED0F0BDC76847F48077C7600020CC
:102A9800C8E740F22527C76012F0800F01D1002057
:102AA800C0E7C76847F4C077C7600020BAE70120CD
:102AB800B8E70020B6E74FF40046C8E74FF4003106
:102AC800CAE7D5F8003543F00053C5F80035D9E713
:102AD80000F58060406980B2704710B400EB411186
:102AE80001F5A064D1F80035C3F381433BB3022B51
:102AF80025D0D1F8003543F08043C1F80035D0F82F
:102B0800103413F47F0F49D1D1F8003523F0004376
:102B1800C1F80035D1F8003543F00043C1F800355D
:102B2800D1F8003523F40043C1F800350023013300
:102B3800B3F57A7F27D82268002AF8DB23E0D1F89A
:102B4800003543F08043C1F80035C36A13F47F0FA2
:102B58001DD1D1F8003523F00043C1F80035D1F874
:102B6800003543F00043C1F80035D1F8003523F4AF
:102B78000043C1F8003500230133B3F57A7F02D84A
:102B88002268002AF8DB00205DF8044B7047D1F872
:102B9800003543F00043C1F80035F4E7D1F80035BB
:102BA80043F00043C1F80035EDE7000000EB4111A8
:102BB800064AC1F81025D1F8003523F0804343F0C8
:102BC8000043C1F800350020704700BF00000880AE
:102BD80070B582B04C78C36B13F4807F07D00B7943
:102BE8002BB912B94B79012B11D0012A13D00B69DB
:102BF800E3B10D892B44013BB3FBF5F39BB2B3F56D
:102C0800807F14D92D020D614FF480730FE02146A7
:102C1800FFF7CCFF75E000EB4413D3F80C5525F013
:102C28006005C3F80C5500234B71E0E70123CD780C
:102C38001DB10D8905FB03F50D610D69C5F312057D
:102C4800374E06EAC3432B438D7A6D0705F0C0451E
:102C580000EB44142B43C4F8103512B1CB68C4F808
:102C6800143500F58066B36813F0010FD4F8003509
:102C780023F00053C4F80035D4F800350CBF4FF0EA
:102C8800005500252B43C4F80035D4F80055254BD2
:102C98001D601D6825F080451D60CB78C3B1214DAE
:102CA8002B6843F400432B601E4B1D6845F000451C
:102CB8001D601B68C4F800351ABBCB780BBB0B69C9
:102CC800FBB1CA79032A14D8DFE802F0081E081EEF
:102CD800144D2B6823F400432B60E5E70333C26AE5
:102CE80092B2C3F38F039A4203D2836943F020035D
:102CF8008361CC684A780B8A002100912146FFF74E
:102D080043FD002002B070BD0333326992B2C3F3B1
:102D18008F039A42EDD2836943F080638361E8E7C9
:102D28000000F81FAC00002070B505460446FFF708
:102D3800E6FC10212846FFF701FD2846FFF712FDA3
:102D480000220AE004EB4211D1F8003523F0802379
:102D580043F08043C1F8003501320F2AF2D9002030
:102D6800034600E001300F2813D804EB401606F59F
:102D7800A061D6F8002522F4004242F04042C6F88D
:102D880000250133B3F57A7FECD80A68002AF8DB0E
:102D9800E8E74FF0FF33C5F814346B612846FFF7B6
:102DA800A8FC002070BD0020704708B521220274DD
:102DB800202242740022428282820722C28200F0CC
:102DC8002AFE08BD08B5A1220274212242740022FD
:102DD800428282820722C28200F01DFE08BD38B5F9
:102DE8000446D0F87833D9694031FFF7EBFF054640
:102DF80020B9D4F8C833022120469847284638BD60
:102E080038B50546D0F87833DC69217879B9217B63
:102E1800B1B9617BF1B9D5F87833D86928B101F037
:102E280045FCD5F878330022DA61002038BD00F07F
:102E380045FF2178284600F057FF00232370E6E776
:102E4800284600F03BFF217B284600F04DFF002379
:102E58002373DEE7284600F031FF617B284600F047
:102E680043FF00236373D6E770B584B0044601239B
:102E78000222114600F0A1FAFF2800F0A1800646C0
:102E88000146204600F08FFAD4F87853502001F01C
:102E980005FCE861D4F87833DD691A2303FB06439F
:102EA80093F84A3313F0800F72D16978204600F006
:102EB8000AFF0146287094F81C336A7868890290E2
:102EC8000320019094F81D030090204600F0E6FED0
:102ED80000222978204601F013FB00231A460A2114
:102EE800204600F06AFAFF286CD01A2303FB00433F
:102EF80093F84A3313F0800F52D1AB731A2303FBB4
:102F08000043B3F84C332B831A2303FB004393F895
:102F1800523313F0800F4BD1AB731A2303FB0040DD
:102F2800B0F854332B83A97B204600F0CCFE68739D
:102F3800E97B204600F0C7FE287394F81C33AA7B6F
:102F4800697B288B02900226019694F81D03009055
:102F5800204600F0A3FE94F81C33EA7B297B688B9B
:102F68000290019694F81D030090204600F096FE0A
:102F7800002685F84C603246697B204601F0C0FA8D
:102F88003246297B204601F0BBFA304604B070BDBA
:102F98006B701A2303FB0646B6F84C336B8184E743
:102FA800EB731A2303FB0043B3F84C336B83ABE793
:102FB800EB731A2303FB0040B0F854336B83B2E77A
:102FC8000220E3E70220E1E7704730B583B0054609
:102FD800D0F87833DC6994F84D30012B03D0022BFC
:102FE80019D003B030BD606A228B90420AD9637B46
:102FF800E16901200090284600F018FE022384F8B9
:103008004D30EEE7637BE1690122009282B22846E7
:1030180000F00CFEF2E7617B01F05EFA012805D0B2
:103028000228DED1012384F84D30DAE7636A228B67
:1030380093420AD99B1A6362E3691A44E261636A9C
:1030480033B1012384F84D30CBE700236362F6E700
:10305800002384F84D302846FFF7B6FFC1E77047D4
:1030680038B50546D0F87833DC6994F84E30032B30
:1030780002D0042B09D038BD237B628B216A00F073
:10308800EBFD042384F84E30F5E7217B01F024FAA8
:103098000128F0D1217B284601F018FAA36A83425F
:1030A80002D0628B824206D3002384F84E30284631
:1030B800FFF7D5FFDFE71B1AA362236A18442062D3
:1030C800032384F84E30D6E7704738B50546D0F864
:1030D8007833DC6994F84C30042B04D8DFE803F02B
:1030E8004C05163C4300012347E0A16CFFF75DFE49
:1030F800034630B1012840D0042384F84C30012322
:103108003BE0022384F84C30012336E004F140010F
:10311800FFF758FE0346C0B9002384F84C30636CAF
:1031280023F07F42A16C4B6823F07F439A4201D081
:10313800012322E0226C0B689A4201D001231CE093
:103148002846FFF7C1FF012317E0012815D0042303
:1031580084F84C30012310E0FFF737FF2846FFF7CB
:103168007FFF012309E0002100F017FD38B9002393
:1031780084F84C30012300E00023184638BD0123B1
:10318800FBE7002305E003F1E002002140F82210EC
:1031980001330E2BF7D9002304E0C218002182F86E
:1031A8001C110133B3F5007FF7D30023037043707C
:1031B80001228270C0F8BC330276402181714376C7
:1031C80080F81C3380F81D231846704708B503782B
:1031D800DBB20B2B00D008BDD0F87833002BFAD027
:1031E8009B699847F7E770B584B004464378072B86
:1031F80000F2A480DFE803F0042C355E677081924A
:10320800082100F04DFC18B10125284604B070BD16
:1032180094F82923A2710125657094F81C3321794B
:1032280002920026019694F81D23009280222046DF
:1032380000F034FD94F81C336179A279029201966A
:1032480094F81D2300923246204600F027FDDCE763
:10325800122100F025FC002872D102236370012599
:10326800D3E7012100F066FC08B10125CDE7022073
:1032780001F05FF9012584F81C5303236370217959
:10328800A37902930026019694F81D3300932B46E8
:103298008022204600F002FD94F81C336179A2795F
:1032A8000292019694F81D2300923246204600F0BF
:1032B800F5FCAAE7092100F00CFC002842D1042300
:1032C80063700125A1E7B0F8361300F002FCD8BB03
:1032D80005236370012598E790F8301319B9062380
:1032E8004370012591E7FF2300F58E7200F00AFC78
:1032F80060BB06236370012587E790F8311319B97D
:1033080007234370012580E7FF2300F58E7200F044
:10331800F9FBE8B907236370012576E790F83213C3
:1033280009B9002571E7FF2300F58E7200F0EAFB6A
:10333800054600283FF469AF012566E7012564E7E3
:10334800012562E7012560E701255EE701255CE7C5
:1033580001255AE798B138B504460D4680F8C023D0
:103368000023C0F87833C0F87C33FFF70AFF0DB1AB
:10337800C4F8C853204601F071F8002038BD022077
:1033880070470A4659B1D0F87C3353B9591CC0F874
:103398007C13DC3300EB830042600020704702207E
:1033A80070470220704790F838338B4203D980F871
:1033B8002013002070470220704770B40646002092
:1033C8000AE01A2404FB056595F845439C421AD087
:1033D800FF2B18D0441CE0B2012813D805461A2444
:1033E80004FB006494F843438C4201D0FF29F1D1D7
:1033F8001A2404FB056494F844439442E1D0FF2A5C
:10340800E8D1DEE7FF2070BC704710B5044601F034
:103418009DF80121204601F065F8002010BDC0F894
:10342800BC13704708B5D0F8BC330133C0F8BC33BF
:10343800FFF7CCFE08BD012380F81F337047002337
:1034480080F81F33704790F81F03704730B587B076
:10345800044602238DF81730FFF7F5FF38B92378B3
:103468002BB12378DBB2032B01D0032323702378FD
:10347800DBB20B2B4AD8DFE803F006131AD0494C0D
:10348800B55E687283C794F81E33002B3ED00123C3
:103498002370C82001F04DF8204601F067F835E0A8
:1034A80094F81F33012B31D1022323702EE06420BE
:1034B80001F03FF8204600F0FBFF84F81D030523C8
:1034C80023700021204600F0FEFB60718021204619
:1034D80000F0F9FB0146207194F81C33A27902929E
:1034E8000025019594F81D2300928022204600F0C3
:1034F800D5FB94F81C336179A2790292019594F86E
:103508001D2300922A46204600F0C8FB002007B081
:1035180030BD2046FFF767FE0028F7D1002384F866
:10352800203394F83333012B02D007232370EDE7BF
:1035380008232370EAE7D4F8C833002BE6D001212A
:103548002046984708232370E0E794F8391320466B
:1035580000F001FB0028D9D109232370D6E794F89D
:103568003B3313F0200F02D10A232370CEE7012149
:10357800204600F001FB0028C8D10A232370C5E7C4
:10358800D4F87C33002BC1D00023C4F8783373B14E
:10359800D4F878331BB39B6820469847E0B90623D4
:1035A8002370D4F8C833032120469847AEE703F1C7
:1035B800DC0204EB82025268117994F843239142A9
:1035C80002D00133DBB2E2E703F1DC0204EB820252
:1035D8005268C4F87823F4E70D23237096E70D2387
:1035E800237093E7D4F878335BB11B69204698477A
:1035F8008DF817009DF81730002B87D10B23237007
:1036080084E70D23237081E7D4F87833002B3FF447
:103618007DAF5B692046984778E72046FFF7B1FD04
:10362800D4F87833002B3FF471AFDB682046984715
:103638000023C4F8783369E708B503784BB9012348
:1036480080F81E33D0F8C8330BB104219847002006
:1036580008BD90F81F33012BF9D102230370F6E758
:1036680010B5044600F07AFF2179204600F03CFBB3
:103678006179204600F038FB002384F81E33D4F823
:10368800C83313B1052120469847204600F05EFF55
:1036980003232370002010BD10B40B7803704B78FF
:1036A80043708B78CC7843EA042343800B79037109
:1036B8004B7943718B798371CB79C371082A16D9F9
:1036C8000B7A4A7A43EA022303818B7ACA7A43EA5D
:1036D800022343810B7B4A7B43EA022383818B7B52
:1036E8008373CB7BC3730B7C03744B7C43745DF88F
:1036F800044B70470B7803704B7843708B7883705A
:10370800CB78C3700B7903714B7943718B798371D3
:10371800CB79C3710B7A037270470B7803704B78BF
:1037280043708B788370CB78C3700B794A7943EAFE
:10373800022383808B79837170474378032B00D0F1
:1037480070470378023B9A4228BF1A4692B2002378
:1037580093420DD210B4C418A47801F8014B023377
:103768009BB29342F7D300230B705DF8044B70476C
:1037780000230B70704730B583B00446037E013BCD
:103788000A2B00F2DA80DFE803F0061037435664AC
:10379800808C9FADC400427900F1100100F00FFA4F
:1037A80002232376012003B030BD417900F094FE56
:1037B800012805D004281BD0022819D00120F2E7DF
:1037C800237CE28A4AB113F0800F03D105232376C4
:1037D8000120E8E703232376E5E713F0800F03D100
:1037E800072323760120DEE7092323760120DAE781
:1037F8000B2323760120D6E7D0F8BC33C3810379A5
:103808008289816800F002FA042323760120CAE73E
:10381800017900F061FE012806D0052800F08F80AC
:10382800042804D00120BEE709232376F5E70B23FB
:1038380023760120B7E743798289012500958168BD
:1038480000F0CEF9D4F8BC33E3810623237628466A
:10385800A9E7417900F040FE012807D0052808D0E3
:1038680002280AD004280CD001209CE707232376DD
:1038780099E70C232376032095E705232376012077
:1038880091E70B23237602208DE703790022114666
:1038980000F0BCF9D4F8BC33E38108232376012077
:1038A80081E7017900F018FE012805D0042807D027
:1038B800052846D0012076E70D232376002072E7FD
:1038C8000B23237601206EE743790125009500221A
:1038D800114600F085F9D4F8BC33E3810A23237636
:1038E800284660E7417900F0F7FD012805D0022855
:1038F80007D0042809D0012055E70D23237600209E
:1039080051E70923237601204DE70B232376012075
:1039180049E7437E0133DBB24376022B07D9D0F85F
:10392800C833062198470023637602203BE700F05E
:1039380015FE01202076A07035E7012033E703202B
:1039480031E703202FE703780A8813440B800378B4
:10395800184470472DE9F04182B00C460B7803708B
:103968004B7843708B78C97843EA012343802379E5
:10397800037163794371A3798371E379C371237AFE
:103988000372092A44D905460923ADF806300026F2
:10399800012E3DD86A88BDF806309A4238D90DF113
:1039A80006012046FFF7CFFF04464378042BEFD1EA
:1039B800B0461A2000FB06F00830284421460230A1
:1039C800FFF798FE00271A2303FB08539B7BBB4293
:1039D8001BD96A88BDF806309A4216D90DF106013E
:1039E8002046FFF7B0FF04464378052BEBD101379B
:1039F8001A2000FB08F000EBC700083028442146D5
:103A08000430FFF78AFEFFB2DDE70136F6B2BFE702
:103A180002B0BDE8F0818378012B03D0022B09D0D6
:103A2800012305E0816082810123037602228270EE
:103A38001846704710B50446FFF79DFE034630B19F
:103A480003280AD0022806D10122A27003E001222D
:103A5800A27000222276184610BD0122A270002210
:103A68002276F8E738B5BDF810508478012C04D0D8
:103A78002A461946FFF7CFFF38BD61F07F0404746A
:103A880006214174428202F47F44B4F5407F03D09A
:103A980000228282C582EBE740F209428282F9E77E
:103AA800F0B583B0044600F58E750E4600912B469E
:103AB8004FF480720021FFF7D5FF074610B1384652
:103AC80003B0F0BD3246294604F22230FFF7E4FD88
:103AD800F5E7F0B583B004460E4600F11C050091E9
:103AE8002B464FF400720021FFF7BCFF074610B1C8
:103AF800384603B0F0BD3246294604F54D70FFF74D
:103B080029FFF5E7F0B583B017461D4600F58E741A
:103B18000093234641F440720021FFF7A3FF0646B5
:103B280010B1304603B0F0BD2A4639462046FFF7AB
:103B380004FEF6E708B58378012B04D0002211466D
:103B4800FFF769FF08BD0023037405224274418210
:103B58008382C382F2E708B58378012B04D0002260
:103B68001146FFF758FF08BD002303740922427469
:103B780041828382C382F2E708B58378012B04D09F
:103B880000221146FFF747FF08BD002303740322F4
:103B9800427441828382C382F2E708B58378012B9D
:103BA80004D000221146FFF736FF08BD0223037434
:103BB80001234374002343828182C382F1E730B535
:103BC80085B01546002403940823029301910094BC
:103BD80023462246294600F0ECFC204605B030BDBD
:103BE80030B585B00C4619469DF8203090F81D5325
:103BF80005B100230393029201940123009300234B
:103C08001A4600F0D6FC002005B030BD30B585B0AE
:103C18001D4600240394029201910122009223463A
:103C2800294600F0C6FC204605B030BD30B585B049
:103C38000C4619469DF8203090F81D5305B1002315
:103C4800039302920194012300930223002200F0BF
:103C5800B0FC002005B030BD30B585B01D4600244D
:103C6800039402920191012200920223294600F056
:103C7800A0FC204605B030BD00230A2B0BD803F169
:103C8800E00250F8222012F4004F02D00133DBB2D8
:103C9800F3E798B270474FF6FF70704710B584B0DD
:103CA800BDF8204002949DF81C4001949DF81840EE
:103CB800009400F063FC002004B010BD08B500F0CB
:103CC80070FC002008BD38B505460C46FFF7D4FF48
:103CD8004FF6FF73984205D044F4004400F1E00326
:103CE80045F82340C0B238BD0A2906D8E03150F85B
:103CF8002130C3F30E0340F8213000207047000044
:103D08002DE9F0478CB000240794089409940A948C
:103D18000B940194514B1A6B42F010021A631A6B00
:103D280002F010020192019A02941A6B42F0040206
:103D38001A631A6B02F004020292029A03941A6B35
:103D480042F080021A631A6B02F080020392039A0F
:103D580004941A6B42F001021A631A6B02F0010212
:103D68000492049A05941A6B42F002021A631A6BC1
:103D780002F002020592059A06941A6B42F00802B4
:103D88001A631B6B03F008030693069B344E224606
:103D980008213046FCF74DFDDFF8D080012211469E
:103DA8004046FCF746FD2F4F22464FF21001384699
:103DB800FCF73FFD082307930125089509940A9409
:103DC80007A93046FCF74AFC0795089509940A9418
:103DD80007A94046FCF742FC0795DFF89480CDF828
:103DE8002080099407A92048FCF738FC042307938E
:103DF80008940994DFF87CA007A95046FCF72EFC2C
:103E08004FF4806307934FF00209CDF8209009948E
:103E18000A9405230B9307A95046FCF71FFC4FF2A1
:103E280010030793089509940A9407A93846FCF7E4
:103E380015FC202307930894099407A93846FCF732
:103E48000DFCCDF81C90CDF82080099407A93046C8
:103E5800FCF704FC0CB0BDE8F08700BF0038024056
:103E680000100240000C024000000240000802401E
:103E7800000012100004024008B50948094B03600D
:103E8800094B436000238360C3604FF480420261A2
:103E980043618361C3610362FDF796FA08BD00BF01
:103EA800C800002000540040A086010008B5094859
:103EB800094B03604FF40072426000238360C360C3
:103EC8000261064A42618361C3610362FDF74CFBEC
:103ED80008BD00BF74010020003C004000770100CD
:103EE80000B583B000230193104A516C41F480510E
:103EF8005164526C02F480520192019A0C480D4AA6
:103F080002604FF4827242608360C3600361436160
:103F18004FF400728261C3610362436283620A23C1
:103F2800C362FEF773FA03B05DF804FB0038024081
:103F38001C0100200030014070B598B030220021EB
:103F48000DEB020000F0BAFB0024079408940994D2
:103F58000A940B9403940494059406940194204BBA
:103F68001A6C42F080521A641B6C03F08053019360
:103F7800019B02941B4B1A6842F480421A601B682A
:103F880003F480430293029B01260C964FF480337E
:103F98000D93022512954FF480031393082314936D
:103FA8004FF4A87315931695072317930CA8FDF7DC
:103FB800D3FD0F230793089509944FF4A0530A9350
:103FC8004FF480530B93052107A8FDF7FDFF0396D7
:103FD800C0230493059503A8FEF7B8F818B070BD80
:103FE800003802400070004030B583B0FCF78CFA0E
:103FF800FFF7A2FFFFF784FEFFF73EFFFFF756FF2C
:10400800FFF76EFF00F096F900238DF807301EE0E9
:10401800002502A901F8015D0A2301221C48FEF7C8
:1040280035FA1C4C01224FF480512046FCF701FC64
:104038002A464FF480412046FCF7FBFB4FF4005121
:104048001448FCF7FCFB4FF4FA70FCF789FA00F00F
:1040580091F901211048FCF7E5FB0028D8D0012888
:10406800ECD102A9AA2301F8013D0A23012208483C
:10407800FEF70CFA074C01224FF480412046FCF76A
:10408800D8FB00224FF480512046FCF7D2FBD5E73D
:104098001C010020000C0240000002407047000094
:1040A80000B583B0002100910C4B5A6C42F4804259
:1040B8005A645A6C02F480420092009A01911A6C78
:1040C80042F080521A641B6C03F080530193019BE9
:1040D8000720FCF759FA03B05DF804FB00380240EA
:1040E80030B589B00023039304930593069307938F
:1040F8000268144B9A4201D009B030BD00250195E1
:10410800114C236B43F002032363236B03F0020378
:104118000193019B4FF4107303931223049301231B
:1041280005930423079303A90848FCF797FA029517
:10413800236C43F400132364236C03F400130293E9
:10414800029BD9E7005400400038024000040240B6
:1041580070B588B0002303930493059306930793DF
:1041680002681E4B9A4201D008B070BD002400942A
:1041780003F5FE331A6C42F400421A641A6C02F416
:1041880000420092009A01941A6B42F001021A63ED
:104198001A6B02F001020192019A02941A6B42F022
:1041A80004021A631B6B03F004030293029B10239F
:1041B8000393022604960625079503A90848FCF7E9
:1041C8004DFA4FF4A4530393049605940694079567
:1041D80003A90448FCF742FAC6E700BF003C0040C8
:1041E800000002400008024000B589B00023039394
:1041F80004930593069307930268154B9A4202D0DD
:1042080009B05DF804FB0021019103F584335A6C71
:1042180042F480525A645A6C02F480520192019A14
:1042280002911A6B42F001021A631B6B03F001033F
:104238000293029BE0230393022304930323069330
:104248000523079303A90348FCF708FAD8E700BF3A
:1042580000300140000002407047FEE7FEE7FEE73D
:10426800FEE770477047704708B5FCF767F908BD67
:1042780008B50248FCF7BFFF08BD00BF880500204D
:1042880008B503460B4A126842B10A4A106803444B
:104298006A46934206D8074A136008BD054A06498C
:1042A8001160F2E700F0D0F90C2303604FF0FF3003
:1042B800F3E700BFB0000020500800200F49D1F8F4
:1042C800883043F47003C1F888300D4B1A6842F007
:1042D80001021A60002098601A6822F0847222F4A1
:1042E80080321A60074A5A601A6822F480221A60DB
:1042F800D8604FF000638B60704700BF00ED00E0AE
:10430800003802401030002404290CD0052902D0BE
:10431800022904D07047064B03221A707047044BD9
:1043280002221A707047024B01221A70F2E700BF8E
:10433800B800002008B501220B490C48FFF70AF81D
:1043480048B90B490948FFF71CF838B90748FFF77F
:104358005CF830B908BDFFF7A1FEF2E7FFF79EFE53
:10436800F4E7FFF79BFEF5E711430008BC010020C6
:104378000800002008B50248FFF768F808BD00BF2C
:10438800BC010020F0B589B0002303930493059382
:10439800069307930368B3F1A04F01D009B0F0BDAD
:1043A800002501951B4C236B43F001032363236B0A
:1043B80003F001030193019B08AE4FF4007346F824
:1043C800143D154F31463846FCF748F94FF4E05391
:1043D800039302230493059506950A230793314610
:1043E8003846FCF73BF9636B43F08003636302953F
:1043F800636C43F480436364636C03F48043029307
:10440800029B2A4629464320FCF7D0F84320FCF7B4
:1044180001F9C3E7003802400000024008B5D0F8AF
:10442800C002FEF7FFFF08BD08B5D0F8C002FFF7CD
:1044380003F908BD08B5D0F8C002FFF711F908BDA7
:10444800704708B5D0F8C002FEF7F5FF08BD08B5FB
:10445800D0F8C002FEF7F3FF08BD000090F8C033A3
:10446800012B01D00020704710B504460F48C0F852
:10447800C042C4F8C4034FF0A0430360082383601C
:104488000123C3600023036102228261C361FCF738
:104498007FFA40B90548FCF78CFF01462046FEF735
:1044A800BEFF002010BDFFF7F9FDF3E788050020E7
:1044B80008B5D0F8C403FCF781FF18B1022803D06F
:1044C800012008BD0020FCE70220FAE708B5D0F873
:1044D800C403FCF768FF08BD08B5D0F8C403FCF7AF
:1044E8005BFF08BD08B590F8C033012B04D0C82085
:1044F800FCF736F8002008BD084600F06FF8F6E72C
:1045080010B4D0F8C43301EB8104E0000446184429
:1045180090F83B0048B901EB8101C800034483F8D7
:10452800512000205DF8044B7047234483F8502045
:10453800F7E708B5FCF714F808BD18B1022803D04E
:1045480002207047002070470120704708B5D0F856
:10455800C403FCF7F4FEFFF7F0FF08BD08B5D0F878
:10456800C403FCF702FFFFF7E8FF08BD08B5D0F861
:10457800C403FCF70CFFFFF7E0FF08BD10B584B0DB
:10458800D0F8C403BDF8204002949DF81C40019463
:104598009DF818400094FCF799F9FFF7CEFF04B096
:1045A80010BD08B5D0F8C403FCF7E0F9FFF7C5FF64
:1045B80008BD10B584B0D0F8C4039DF82440039416
:1045C800BDF820400294079C01949DF8184000947F
:1045D800FCF728FAFFF7B1FF04B010BD08B528B101
:1045E800002201210248FCF724F908BD0122F8E75E
:1045F80000080240DFF834D0002103E00C4B5B5880
:10460800435004310B480C4B42189A42F6D30B4ADC
:1046180002E0002342F8043B094B9A42F9D3FFF722
:104628004DFE00F017F8FFF7DFFC7047000002208E
:104638008C48000800000020900000209000002016
:1046480050080020FEE70000014B1868704700BFC3
:104658002C00002070B50D4E0D4CA41BA410002595
:10466800A54209D10B4E0C4C00F0EAF8A41BA4108B
:104678000025A54205D170BD56F82530984701356B
:10468800EEE756F8253098470135F2E784480008E8
:10469800844800088448000888480008024B0146FE
:1046A800186800F061B800BF2C000020024B0146DA
:1046B800186800F00BB800BF2C0000200244034625
:1046C800934200D1704703F8011BF9E738B5054656
:1046D800002945D051F8043C0C1F002BB8BFE41842
:1046E80000F0ACF81F4A1368104633B963601460D1
:1046F8002846BDE8384000F0A2B8A3420CD921688A
:104708006218934204BF1A685B68636004BF52185A
:1047180022600460ECE713465A680AB1A242FAD94B
:1047280019685818A0420BD12068014458188242D1
:104738001960DDD1106852685A6001441960D7E7E2
:1047480002D90C232B60D3E7206821188A4204BFC2
:1047580011685268626004BF091821605C60C7E78D
:1047680038BD00BFBC00002070B5CD1C25F0030586
:1047780008350C2D38BF0C25002D064601DBA94253
:1047880003D90C233360002070BD00F057F8214A8C
:104798001468214691B9204C23681BB9304600F0B3
:1047A8003DF820602946304600F038F8431C24D1F3
:1047B8000C233360304600F042F8E4E70B685B1BDB
:1047C80018D40B2B0FD90B60CD50CC18304600F005
:1047D80036F804F10B00231D20F00700C31AD3D0CC
:1047E8005A42E250D0E78C424B6816BF63601360B0
:1047F8000C46EBE70C464968CCE7C41C24F00304DC
:10480800A04205D0211A304600F008F80130CFD078
:104818002560DBE7BC000020C000002038B5064C4E
:104828000023054608462360FFF72AFD431C02D1F2
:10483800236803B12B6038BD4C08002070477047CF
:10484800F8B500BFF8BC08BC9E467047F8B500BF75
:08485800F8BC08BC9E46704745
:104860000000000000000000010203040607080920
:0C48700000000000010203044344430068
:08487C007CB9FF7F0100000080
:04488400AD0100087A
:04488800890100089A
:10488C000100000010000000784800080200000041
:10489C00712E0008092E0008E72D0008D3300008FF
:1048AC00AF2D0008000000000024F40030000020B0
:1048BC0000000000000000000000000000000000EC
:1048CC0000000000000000000000000000000000DC
:1048DC0000000000000000000000000000000000CC
:1048EC0000000000000000000000000000000000BC
:1048FC0000000000000000000000000000000000AC
:10490C00000000000000000000000000000000009B
:04000005080045FDAD
:00000001FF
